:020000040800F2
:1000000010040020FD070008D9070008DB070008DE
:10001000DD070008DF070008E10700080000000016
:10002000000000000000000000000000E3070008DE
:10003000E507000800000000E7070008E9070008DE
:10004000290800082D0800083108000835080008B4
:10005000390800083D080008410800084508000864
:10006000490800084D080008510800085508000814
:10007000590800085D0800086108000865080008C4
:10008000690800086D0800087108000800000000F9
:1000900000000000000000000000000075080008DB
:1000A000790800087D080008810800088508000814
:1000B000890800088D0800089108000895080008C4
:1000C000990800089D080008A1080008A508000874
:1000D000A9080008AD080008B108000800000000E9
:1000E000B5080008B9080008BD08000800000000B5
:1000F000000000000000000000000000C10800082F
:1001000000000000C5080008C9080008CD08000864
:1001100000000000000000000000000000000000DF
:10012000D1080008D5080008D9080008DD08000833
:10013000E1080008000000000000000000000000CE
:10014000000000000000000000000000E5080008BA
:10015000E9080008ED080008F1080008F5080008A3
:10016000F9080008FD080008000000000000000079
:10017000000000000000000000000000000000007F
:10018000000000000109000800000000000000005D
:100190000509000809090008012959D1DFF858228A
:1001A000DFF85812904203D1086840F001004EE099
:1001B000DFF84C22904203D1086840F0020046E08C
:1001C000DFF84022904203D1086840F004003EE08E
:1001D000DFF83422904203D1086840F0080036E08E
:1001E000DFF82822904203D1086840F010002EE08A
:1001F000DFF81C22904203D1086840F0200026E07E
:10020000DFF81022904203D1086840F040001EE061
:10021000DFF80422904203D1086840F0800016E025
:10022000DFF8F821904203D1086840F480700EE0B6
:10023000DFF8EC21904203D1086840F4007006E03A
:10024000DFF8E021904203D1086840F48060086044
:100250007047F8B5044601212068FFF79DFF6379D8
:100260001D4601210322042D0CDA23795800854014
:100270002068066802FA03F326EA030303600368B2
:100280001D436EE0DFF8A0010AD1C568E35601FA0C
:1002900003F31D43C56000F0A4F89D4385600CE0A6
:1002A000052B0AD100F09DF81D438560C56894F9BF
:1002B000043001FA03F39D43C56000262579AE1989
:1002C000AB0806F0FC06AD1BDFF86061376847F449
:1002D000804737602668484FBE4231D0484FBE4203
:1002E00008BF01262DD0474FBE4208BF022628D0A6
:1002F000454FBE4208BF032623D0444FBE4208BF2D
:1003000004261ED0424FBE4208BF052619D0414FD9
:10031000BE4208BF062614D03F4FBE4208BF072684
:100320000FD03E4FBE4208BF08260AD03C4FBE4207
:1003300008BF092605D03B4FBE4208BF0A2600D0A1
:1003400000263B4F57F823C0AD0006FA05F545EAF5
:100350000C0547F82350056894F9043001FA03F3BB
:100360001D43056025682379A679AF68580002FA15
:1003700003F327EA03038640AB60A8680643AE6038
:100380002379E679EF689A40580027EA020286400E
:10039000EA60E8680643EE602379207A6A6899404B
:1003A00022EA0101696098406968084368606079E1
:1003B000022815D121798A0801EB5273C80823F06D
:1003C000070305EB8000C91A8900026A0F238B40DE
:1003D0009A430262026A637A03FA01F111430162ED
:1003E000F1BD856894F9043001FA03F370470069A0
:1003F000C84000F001007047000002403038024061
:100400000004024000080240000C024000100240BC
:100410000014024000180240001C0240002002406C
:100420000024024000280240003C014044380240C1
:1004300008380140002100E0491C8142FCD370478C
:100440000222E0B58DF80520052100228DF8091063
:100450008DF808208DF8072002223A4800900D21DF
:100460008DF8062000F007F80F2100F004F80C20AA
:100470008DF8040025E08DF804106846FFF7E9BE0A
:10048000E0B5314A009201218DF8041000220221CA
:100490008DF805208DF80A10ADF80820ADF806207B
:1004A000684600F077F807BDE0B5284800900222C2
:1004B00000218DF804208DF805108DF807208DF8A7
:1004C00006206846FFF7C5FE07BD30B5A1B001A8FC
:1004D0001F491D4D1D4C802200F0C4F8FFF7E4FFBA
:1004E000FFF7AEFFFFF7CCFF0121284600F09CF894
:1004F00002212046FFF77BFF0028F9D01548FFF7BF
:1005000099FF0121284600F083F801A800F0B6F811
:100510008DF8000001226946284600F065F801A820
:1005200000F0ACF8C2B201A9284600F05DF88021C5
:10053000284600F053F80028F9D10021284600F0A1
:1005400067F8D5E700040240003800400000024090
:100550009006000840420F00012912D1094A0A49B9
:10056000904204D1486840F4805048607047074A80
:1005700090421CBF064A904203D1086840F4804074
:1005800008607047003001404038024000380040A9
:10059000003C004010B5044601212068FFF7DCFF55
:1005A00021796079890040B1012808BF41F40041F8
:1005B00003D0022808BF41F48061A27AA07941EA01
:1005C000C201227A41EAC021E07941EA4201627A1D
:1005D0000143206841EA4221016010BD8068084063
:1005E00018BF0120C0B2704710B503E031F8013BDD
:1005F000C360921ED3B253B183689C07FCD50368D5
:100600001C05F3D411F8013BC360521EF2E710BD84
:10061000012904D1026842F040020260704701687B
:1006200021F0400101607047012941680CBF41F091
:10063000040121F00401416070470EE00268436844
:10064000024408305FEAC37C44BF4B445B1E52F84F
:1006500004CB43F804CB091FF9D150F8041B00293F
:10066000ECD170474AB1000011F8013B521E00F86E
:10067000013B1CBF11F8013BF8E7704700F1010393
:1006800010F8011B11B110F8011BFBE7C01A7047ED
:1006900053504920286F722053657269616C205055
:1006A00065726970686572616C20496E7465726606
:1006B0006163652920697320612070726F746F63B4
:1006C0006F6C206E616D6564206279204D6F746F70
:1006D000726F6C612E20576974682068696D20798B
:1006E0006F752063616E20636F6E74726F6C207320
:1006F000656E736F72732C205344206361726420A3
:10070000616E64206D756368206D6F72652E0000E8
:1007100010B5034A7A440832024C7C44A41D03E01D
:10072000400000005000000004E01168101D11445A
:1007300088470246A242F8D110BD00004EF688510B
:10074000CEF20001086840F470000860BFF34F8FDC
:10075000BFF36F8F4FF00170E1EE100A7047000099
:10076000DBFEFFFF0C000000B400000000000020D2
:100770000000000000F00DF8002801D0FFF7C8FFCE
:10078000AFF300800020AFF30080FFF79EFE00F083
:1007900002F80120704700F001B800000746384613
:1007A00000F002F8FBE7000080B5AFF30080024ADA
:1007B00011001820ABBEFBE72600020005480146E9
:1007C00003B4684680F30988AFF30080FFF7B6FFF3
:1007D000FFF7D0FFA5EDF5FEFEE7FEE7FEE7FEE73B
:1007E000FEE770477047704700F000B80248426863
:1007F000017851184160704700000020014880478F
:10080000014800470D080008BD07000802490868B4
:1008100040F470000860704788ED00E001000000BF
:100820000000000010000000FFF7FEBFFFF7FEBF52
:10083000FFF7FEBFFFF7FEBFFFF7FEBFFFF7FEBFEC
:10084000FFF7FEBFFFF7FEBFFFF7FEBFFFF7FEBFDC
:10085000FFF7FEBFFFF7FEBFFFF7FEBFFFF7FEBFCC
:10086000FFF7FEBFFFF7FEBFFFF7FEBFFFF7FEBFBC
:10087000FFF7FEBFFFF7FEBFFFF7FEBFFFF7FEBFAC
:10088000FFF7FEBFFFF7FEBFFFF7FEBFFFF7FEBF9C
:10089000FFF7FEBFFFF7FEBFFFF7FEBFFFF7FEBF8C
:1008A000FFF7FEBFFFF7FEBFFFF7FEBFFFF7FEBF7C
:1008B000FFF7FEBFFFF7FEBFFFF7FEBFFFF7FEBF6C
:1008C000FFF7FEBFFFF7FEBFFFF7FEBFFFF7FEBF5C
:1008D000FFF7FEBFFFF7FEBFFFF7FEBFFFF7FEBF4C
:1008E000FFF7FEBFFFF7FEBFFFF7FEBFFFF7FEBF3C
:1008F000FFF7FEBFFFF7FEBFFFF7FEBFFFF7FEBF2C
:0C090000FFF7FEBFFFF7FEBFFFF7FEBFD2
:04000005080007BD2B
:00000001FF
