:020000040800F2
:1000000008040020B9080008A1080008A308000897
:10001000A5080008A7080008A908000800000000BB
:10002000000000000000000000000000AB08000815
:10003000AD08000800000000AF080008B108000883
:10004000E1080008E5080008E9080008ED080008D4
:10005000F1080008F5080008F9080008630700081F
:10006000FD08000801090008050900080909000841
:100070000D090008110900081509000819090008F0
:100080001D090008210900082509000800000000DA
:100090000000000000000000000000002909000826
:1000A0002D09000831090008350900083909000840
:1000B0003D090008410900084509000849090008F0
:1000C0004D090008510900085509000859090008A0
:1000D0005D090008610900086509000800000000CA
:1000E000690900086D090008710900080000000096
:1000F000000000000000000000000000750900087A
:1001000000000000790900087D0900088109000845
:1001100000000000000000000000000000000000DF
:1001200085090008890900088D090008910900085F
:100130009509000800000000000000000000000019
:100140000000000000000000000000009909000805
:100150009D090008A1090008A5090008A9090008CF
:10016000AD090008B109000800000000000000000F
:10017000000000000000000000000000000000007F
:1001800000000000B50900080000000000000000A9
:10019000B9090008BD0900080A00D2B2012A77D1C6
:1001A000DFF8D424904206D1DFF8D024136853F04E
:1001B000010313606CE0DFF8C824904206D1DFF839
:1001C000BC24136853F00203136061E0DFF8B42429
:1001D000904206D1DFF8A424136853F0040313609F
:1001E00056E0DFF8A424904206D1DFF8902413688B
:1001F00053F0080313604BE0DFF89024904206D1DF
:10020000DFF87824136853F01003136040E0DFF840
:100210008024904206D1DFF86424136853F0200351
:10022000136035E0DFF86C24904206D1DFF84C24EF
:10023000136853F0400313602AE0DFF85C24904217
:1002400006D1DFF83824136853F0800313601FE0F1
:10025000DFF84824904206D1DFF82024136853F4D5
:100260008073136014E0DFF83824904206D1DFF881
:100270000C24136853F40073136009E0DFF824249E
:10028000904205D1DFF8F423136853F480631360C0
:100290007047F0B500224179042915DA43790179D4
:1002A000C9B249008B4001680C68032590F904101D
:1002B0008D40AC4301680C6001680968194304680B
:1002C000216000210A00BFE04179042913D10123F4
:1002D000DFF8D4130C6890F9045013FA05F52C4399
:1002E0000C60DFF8C843256890F904108B4035EAAC
:1002F000030323602BE04179052913D1DFF8AC1308
:1003000001230C6890F9045013FA05F52C430C6096
:10031000DFF89443256890F904108B4035EA030315
:10032000236014E04179052911D10123DFF8781306
:100330000C6890F9045013FA05F52C430C60DFF8B3
:100340006C43256890F904108B402B43236001799E
:10035000042391FBF3F30479042194FBF1F501FBF1
:100360001544DFF84C130D6855F480450D600168A5
:10037000DFF80453A94201D1002546E00168DFF807
:100380000053A94201D101253FE00168DFF8F45292
:10039000A94201D1022538E00168DFF8EC52A942F8
:1003A00001D1032531E00168DFF8E052A94201D113
:1003B00004252AE00168DFF8D852A94201D10525B9
:1003C00023E00168DFF8CC52A94201D106251CE0E8
:1003D0000168DFF8C452A94201D1072515E0016880
:1003E000DFF8B852A94201D108250EE00168DFF814
:1003F000B052A94201D1092507E00168DFF8A452F3
:10040000A94201D10A2500E00025DFF8A862190001
:10041000C9B256F82170AC465FFA8CFCE4B2A10078
:100420001CFA01FC5CEA07071900C9B246F8217002
:10043000DFF8846237685FF0010C90F904101CFA51
:1004400001FC5CEA0707376083790179C9B249008A
:100450008B4003260168896890F9044016FA04F479
:10046000A1430468A1600168896819430468A16018
:100470000024C5790179C9B249008D400168CF686F
:1004800090F904108E4037EA06060168CE600168D4
:10049000C96829430668F1600026077A90F90410BC
:1004A0008F400168D1F804C05FF0010E90F904108C
:1004B0001EFA01FE3CEA0E0C0168C1F804C0016896
:1004C00049683943D0F800C0CCF804105FF0000C44
:1004D000417A022926D1002200240179082391FBC8
:1004E000F3F30579082195FBF1F601FB1655016838
:1004F00001EB83010E6A0F272900C9B289008F40E2
:10050000BE43016801EB83010E62016801EB8301C8
:100510000E6A477AEDB2A9008F403E43016801EBB5
:1005200083010E62F0BD426901238B405A40426153
:100530007047F0B40A00D2B2012A38D10200D2B218
:10054000202A06DA5D4A136801248440234313609D
:1005500065E00200D2B2202A12DB0200D2B2402AA9
:100560000EDA0200D2B22023554C2568012692FBF8
:10057000F3F703FB172216FA02F22A4322604EE039
:100580000200D2B2412A4ADB0200D2B2602A46DA25
:100590000200D2B220234B4C2568012692FBF3F7D0
:1005A00003FB172216FA02F22A43226037E0020008
:1005B000D2B2202A06DA444A136801248440234335
:1005C00013602CE00200D2B2202A12DB0200D2B269
:1005D000402A0EDA0200D2B220233C4C25680126C4
:1005E00092FBF3F703FB172216FA02F22A4322606A
:1005F00015E00200D2B2412A11DB0200D2B2602A19
:100600000DDA0200D2B22023314C2568012692FB7C
:10061000F3F703FB172216FA02F22A432260F0BC1A
:100620007047F0B40200D2B2042392FBF3F304004B
:10063000E4B2042294FBF2F502FB15442200D2B28C
:10064000D5002D1D234E1A00D2B256F8227011FA91
:1006500005F217431A00D2B246F82270F0BC704778
:100660001D490A68C240D20704D50A6801238340A5
:100670001A430A6070470000000002403038024010
:100680000004024000080240000C0240001002403A
:100690000014024000180240001C024000200240EA
:1006A00000240240002802400C3C0140083C01406C
:1006B0004438024008380140003C014000E100E0BD
:1006C00004E100E008E100E080E100E084E100E016
:1006D00088E100E000E400E0143C01400021814298
:1006E00001D2491CFBE7704780B586B026480390CD
:1006F0000D218DF8101001218DF8111002218DF8B7
:10070000121000218DF8141001218DF81310012111
:10071000FFF742FD03A8FFF7BCFD1C480090012134
:100720008DF8041004218DF8051002218DF80610B3
:1007300001218DF807100121FFF72EFD6846FFF714
:10074000A8FD9DF80500042807DB03210720FFF71B
:1007500068FF01210720FFF7ECFE0D48FFF7BEFF01
:10076000FBE710B50120FFF77BFF00242000C0B29B
:10077000052808DA0D210448FFF7D5FE0548FFF7E4
:10078000ADFF641CF2E710BD000802400004024007
:10079000400D030040420F000EE00268436802442F
:1007A00008305FEAC37C44BF4B445B1E52F804CB65
:1007B00043F804CB091FF9D150F8041B0029ECD1F0
:1007C0007047000010B5074979441831064C7C4445
:1007D000163404E00A68081D114488470146A14206
:1007E000F8D110BD2C0000003C0000004EF68851EE
:1007F000CEF20001086840F470000860BFF34F8F2C
:10080000BFF36F8F4FF00170E1EE100A70470000E8
:1008100089FFFFFF08000000C0000000000000206A
:100820000000000000F00DF8002801D0FFF7CAFF1B
:10083000AFF300800020AFF30080FFF755FF00F01A
:1008400002F80120704700F001B800000746384662
:1008500000F002F8FBE7000080B5AFF30080024A29
:1008600011001820ABBEFBE7260002000548014638
:1008700003B4684680F30988AFF30080FFF7B6FF42
:10088000FFF7D0FFA5EDF5FE03480168034A127893
:1008900089180160704700BF00000020040000209C
:1008A000FEE7FEE7FEE7FEE7FEE7704770477047AA
:1008B00080B5FFF7E9FF01BD0148804701480047C7
:1008C000C90800086D0800080248016851F4700169
:1008D0000160704788ED00E00000000001000000AA
:1008E000FFF7FEBFFFF7FEBFFFF7FEBFFFF7FEBF3C
:1008F000FFF7FEBFFFF7FEBFFFF7FEBFFFF7FEBF2C
:10090000FFF7FEBFFFF7FEBFFFF7FEBFFFF7FEBF1B
:10091000FFF7FEBFFFF7FEBFFFF7FEBFFFF7FEBF0B
:10092000FFF7FEBFFFF7FEBFFFF7FEBFFFF7FEBFFB
:10093000FFF7FEBFFFF7FEBFFFF7FEBFFFF7FEBFEB
:10094000FFF7FEBFFFF7FEBFFFF7FEBFFFF7FEBFDB
:10095000FFF7FEBFFFF7FEBFFFF7FEBFFFF7FEBFCB
:10096000FFF7FEBFFFF7FEBFFFF7FEBFFFF7FEBFBB
:10097000FFF7FEBFFFF7FEBFFFF7FEBFFFF7FEBFAB
:10098000FFF7FEBFFFF7FEBFFFF7FEBFFFF7FEBF9B
:10099000FFF7FEBFFFF7FEBFFFF7FEBFFFF7FEBF8B
:1009A000FFF7FEBFFFF7FEBFFFF7FEBFFFF7FEBF7B
:1009B000FFF7FEBFFFF7FEBFFFF7FEBFFFF7FEBF6B
:040000050800086D7A
:00000001FF
