:020000040800F2
:1000000008040020C1090008A9090008AB0900087C
:10001000AD090008AF090008B109000800000000A0
:10002000000000000000000000000000B30900080C
:10003000B509000800000000B7090008B909000868
:10004000F5090008F9090008FD090008010A00087F
:10005000050A0008090A00080D0A0008F906000848
:10006000110A0008150A0008190A00081D0A0008EC
:10007000210A0008250A0008290A00082D0A00089C
:10008000310A0008350A0008390A0008000000009B
:100090000000000000000000000000003D0A000811
:1000A000410A0008450A0008490A00084D0A0008EC
:1000B000510A0008550A0008590A00085D0A00089C
:1000C000610A0008650A0008690A00086D0A00084C
:1000D000710A0008750A0008790A0008000000008B
:1000E0007D0A0008810A0008850A00080000000057
:1000F000000000000000000000000000890A000865
:10010000000000008D0A0008910A0008950A000806
:1001100000000000000000000000000000000000DF
:10012000990A00089D0A0008A10A0008A50A00080B
:10013000A90A000800000000000000000000000004
:10014000000000000000000000000000AD0A0008F0
:10015000B10A0008B50A0008B90A0008BD0A00087B
:10016000C10A0008C50A00080000000000000000E5
:10017000000000000000000000000000000000007F
:1001800000000000C90A0008000000000000000094
:10019000CD0A0008D10A00080A00D2B2012A77D19C
:1001A000DFF8D423904206D1DFF8D023136853F050
:1001B000010313606CE0DFF8C823904206D1DFF83A
:1001C000BC23136853F00203136061E0DFF8B4232B
:1001D000904206D1DFF8A423136853F004031360A0
:1001E00056E0DFF8A423904206D1DFF8902313688D
:1001F00053F0080313604BE0DFF89023904206D1E0
:10020000DFF87823136853F01003136040E0DFF841
:100210008023904206D1DFF86423136853F0200353
:10022000136035E0DFF86C23904206D1DFF84C23F1
:10023000136853F0400313602AE0DFF85C23904218
:1002400006D1DFF83823136853F0800313601FE0F2
:10025000DFF84823904206D1DFF820331A6852F4C1
:1002600080721A6014E0DFF83823904206D1DFF87C
:100270000C331A6852F400721A6009E0DFF8242384
:10028000904205D1DFF8F4321A6852F480621A60A5
:100290007047F8B50500002401212868FFF77CFFAE
:1002A0006879042815DA69792879C0B2400081405C
:1002B00028680268032395F9040083409A4328685C
:1002C00002602868006808432A6810600020040063
:1002D000BFE06879042813D10121DFF8CC32186817
:1002E00095F9042011FA02F210431860DFF8BC32CD
:1002F0001A6895F90400814032EA010119602BE087
:100300006879052813D1DFF8A4320121186895F91E
:10031000042011FA02F210431860DFF88C321A68D8
:1003200095F90400814032EA0101196014E068790E
:10033000052811D10121DFF87032186895F90420E1
:1003400011FA02F210431860DFF860321A6895F96A
:1003500004008140114319602879042190FBF1F1D8
:100360002A79042392FBF3F003FB1022DFF84032DA
:10037000186850F4804018602B68DFF8FC01834255
:1003800001D1002346E02B68DFF8F401834201D15C
:1003900001233FE02B68DFF8EC01834201D1022307
:1003A00038E02B68DFF8E001834201D1032331E01C
:1003B0002B68DFF8D801834201D104232AE02B689F
:1003C000DFF8CC01834201D1052323E02B68DFF85D
:1003D000C401834201D106231CE02868DFF8B8314C
:1003E000984201D1072315E02B68DFF8B001834262
:1003F00001D108230EE02B68DFF8A401834201D16C
:10040000092307E02B68DFF89C01834201D10A230E
:1004100000E00023DFF89C610800C0B256F82070AD
:100420009C465FFA8CFCD2B290001CFA00FC5CEA9D
:1004300007070800C0B246F82070DFF87C61D6F8E4
:1004400000C0012795F90400874057EA0C0CC6F854
:1004500000C0A9792879C0B24000814003262868ED
:10046000806895F9042016FA02F290432A68906099
:10047000286882680A43286882600022EB7928791C
:10048000C0B2400083402868C76895F904008640E0
:1004900037EA06062868C6602868C6681E432868CA
:1004A000C66000262F7A95F9040087402868D0F8A6
:1004B00004C05FF0010E95F904001EFA00FE3CEA4C
:1004C0000E0C2868C0F804C0286840683843D5F886
:1004D00000C0CCF804005FF0000C6879022826D137
:1004E000002100222B79082093FBF0F32C790820BF
:1004F00094FBF0F600FB1644286800EB8300066AC4
:100500000F272000C0B280008740BE43286800EB60
:1005100083000662286800EB8300066A6F7AE4B203
:10052000A00087403E43286800EB83000662F1BDCF
:1005300010B41300DBB2012B05D1446901238B40B9
:100540001C43446104E0446901238B409C434461A3
:1005500010BC7047436901228A4053404361704791
:1005600016490A68C240D20704D50B6801228240AE
:1005700013430B6070470000000002403038024017
:100580000004024000080240000C0240001002403B
:100590000014024000180240001C024000200240EB
:1005A00000240240002802400C3C0140083C01406D
:1005B0004438024008380140003C0140143C0140EE
:1005C0000021814201D2491CFBE77047E0B5544845
:1005D000009002208DF8050005208DF8090000200C
:1005E0008DF8080000208DF8070002208DF8060025
:1005F0000D208DF804006846FFF74BFE0F208DF8A4
:1006000004006846FFF745FE0E208DF8040068469A
:10061000FFF73FFE0C208DF8040001208DF8050047
:100620006846FFF736FE07BDE0B53E480090012062
:100630008DF8040000208DF8050000208DF80A00D8
:1006400000208DF8070000208DF8080000208DF8AC
:10065000060001208DF80900684600F095F807BDF6
:100660007FB5FFF7B3FFFFF7DFFF2E4C012120001E
:1006700000F0ECF86D462C4890E80E0085E80E007E
:1006800000252800C0B2052835DA0121200000F03D
:10069000CFF8234E00220C213000FFF749FF002144
:1006A000200000F0C5F801220C213000FFF740FFC8
:1006B0000121200000F0BCF800220C213000FFF7DF
:1006C00037FF684600F0D0F80200D2B26946200039
:1006D00000F091F88021200000F085F80028F9D181
:1006E0000021200000F0A4F801220C213000FFF7C7
:1006F0001FFF6D1CC5E7FEE710B50120FFF730FFB7
:1007000000242000C0B2052808DA0D210748FFF7B1
:1007100021FF0748FFF754FF641CF2E710BD0000FB
:100720000004024000380040E009000800080240D0
:1007300040420F000A00D2B2012A19D10D4A90425C
:1007400005D10D4B1A6852F480521A6010E00B4A22
:10075000904205D10A4B1A6852F480421A6007E0B1
:10076000084A904204D1064B1A6852F480421A603B
:10077000704700000030014044380240003800401B
:1007800040380240003C004010B5040001212068C0
:10079000FFF7D0FF0021207951EA8001607900281D
:1007A00002D131F400410DE06079012802D151F409
:1007B000004107E06079022804D131F4004151F48E
:1007C0008061FFE7A07A51EAC001A07951EAC02117
:1007D000207A51EA4001E0790143607A51EA4021F0
:1007E0002068016010BD02009068084201D001201D
:1007F00000E00020704770B504000E0015002800CE
:10080000C0B2002813D002212000FFF7ECFF00281F
:10081000F9D02068000505D53088E060681E451EC7
:10082000761CECE73078E0606D1E761CE7E770BD63
:100830000A00D2B2012A04D1026852F040020260DA
:1008400003E0026832F04002026070470A00D2B250
:10085000012A04D1026852F48072026003E0026847
:1008600032F480720260704700F10103810704D006
:1008700010F8011B820781B1FAD10268A2F101319F
:10088000914311F0803104BF50F8042FF6E709BA04
:10089000B1FA81F100EBD100401CC01A70470EE0A4
:1008A00002684368024408305FEAC37C44BF4B449B
:1008B0005B1E52F804CB43F804CB091FF9D150F862
:1008C000041B0029ECD1704710B5034A7A44083262
:1008D000024C7C44A41D03E04000000050000000D6
:1008E00004E01168101D114488470246A242F8D165
:1008F00010BD00004EF68851CEF20001086840F4A9
:1009000070000860BFF34F8FBFF36F8F4FF001701F
:10091000E1EE100A7047000087FFFFFF08000000AB
:10092000CC000000000000200000000000F00DF8E6
:10093000002801D0FFF7C8FFAFF300800020AFF31D
:100940000080FFF78DFE00F002F80120704700F0F4
:1009500001B800000746384600F002F8FBE7000047
:1009600080B5AFF30080024A11001820ABBEFBE750
:10097000260002000548014603B4684680F3098852
:10098000AFF30080FFF7B6FFFFF7D0FFA5EDF5FE50
:1009900003480168034A127889180160704700BF54
:1009A0000000002004000020FEE7FEE7FEE7FEE76F
:1009B000FEE770477047704780B5FFF7E9FF01BD5C
:1009C0000148804701480047D1090008750900081F
:1009D0000249086850F470000860704788ED00E034
:1009E00048656C6C6F205350490000000000000007
:1009F00001000000FFF7FEBFFFF7FEBFFFF7FEBFDD
:100A0000FFF7FEBFFFF7FEBFFFF7FEBFFFF7FEBF1A
:100A1000FFF7FEBFFFF7FEBFFFF7FEBFFFF7FEBF0A
:100A2000FFF7FEBFFFF7FEBFFFF7FEBFFFF7FEBFFA
:100A3000FFF7FEBFFFF7FEBFFFF7FEBFFFF7FEBFEA
:100A4000FFF7FEBFFFF7FEBFFFF7FEBFFFF7FEBFDA
:100A5000FFF7FEBFFFF7FEBFFFF7FEBFFFF7FEBFCA
:100A6000FFF7FEBFFFF7FEBFFFF7FEBFFFF7FEBFBA
:100A7000FFF7FEBFFFF7FEBFFFF7FEBFFFF7FEBFAA
:100A8000FFF7FEBFFFF7FEBFFFF7FEBFFFF7FEBF9A
:100A9000FFF7FEBFFFF7FEBFFFF7FEBFFFF7FEBF8A
:100AA000FFF7FEBFFFF7FEBFFFF7FEBFFFF7FEBF7A
:100AB000FFF7FEBFFFF7FEBFFFF7FEBFFFF7FEBF6A
:100AC000FFF7FEBFFFF7FEBFFFF7FEBFFFF7FEBF5A
:040AD000FFF7FEBF6F
:040000050800097571
:00000001FF
