:020000040800F2
:1000000008040020A50900088D0900088F090008D0
:1000100091090008930900089509000800000000F4
:100020000000000000000000000000009709000828
:1000300099090008000000009B0900089D090008BC
:10004000D9090008DD090008E1090008E5090008F0
:10005000E9090008ED090008F1090008E3060008B5
:10006000F5090008F9090008FD090008010A00085F
:10007000050A0008090A00080D0A0008110A00080C
:10008000150A0008190A00081D0A000800000000EF
:10009000000000000000000000000000210A00082D
:1000A000250A0008290A00082D0A0008310A00085C
:1000B000350A0008390A00083D0A0008410A00080C
:1000C000450A0008490A00084D0A0008510A0008BC
:1000D000550A0008590A00085D0A000800000000DF
:1000E000610A0008650A0008690A000800000000AB
:1000F0000000000000000000000000006D0A000881
:1001000000000000710A0008750A0008790A00085A
:1001100000000000000000000000000000000000DF
:100120007D0A0008810A0008850A0008890A00087B
:100130008D0A000800000000000000000000000020
:10014000000000000000000000000000910A00080C
:10015000950A0008990A00089D0A0008A10A0008EB
:10016000A50A0008A90A000800000000000000001D
:10017000000000000000000000000000000000007F
:1001800000000000AD0A00080000000000000000B0
:10019000B10A0008B50A00080A00D2B2012A77D1D4
:1001A000DFF8D423904206D1DFF8D023136853F050
:1001B000010313606CE0DFF8C823904206D1DFF83A
:1001C000BC23136853F00203136061E0DFF8B4232B
:1001D000904206D1DFF8A423136853F004031360A0
:1001E00056E0DFF8A423904206D1DFF8902313688D
:1001F00053F0080313604BE0DFF89023904206D1E0
:10020000DFF87823136853F01003136040E0DFF841
:100210008023904206D1DFF86423136853F0200353
:10022000136035E0DFF86C23904206D1DFF84C23F1
:10023000136853F0400313602AE0DFF85C23904218
:1002400006D1DFF83823136853F0800313601FE0F2
:10025000DFF84823904206D1DFF82023136853F4D7
:100260008073136014E0DFF83823904206D1DFF882
:100270000C23136853F40073136009E0DFF82423A0
:10028000904205D1DFF8F422136853F480631360C1
:100290007047F8B50400002501212068FFF77CFFB6
:1002A0006079042815DA61792079C0B24000814074
:1002B00020680268032394F9040083409A4320686D
:1002C0000260206800680843226810600020050072
:1002D000BFE06079042813D10121DFF8CC02026865
:1002E00094F9043011FA03F31A430260DFF8BC22D8
:1002F000136894F90400814033EA010111602BE096
:100300006079052813D1DFF8A4020121026894F96D
:10031000043011FA03F31A430260DFF88C221368E9
:1003200094F90400814033EA0101116014E060791E
:10033000052811D10121DFF87002026894F9043018
:1003400011FA03F31A430260DFF86022136894F98C
:1003500004008140194311602079042190FBF1F1E0
:100360002279042092FBF0F300FB1322DFF8400215
:10037000036853F4804303602068DFF8FC3198423F
:1003800001D1002346E02068DFF8F431984201D122
:1003900001233FE02068DFF8EC31984201D10223CD
:1003A00038E02068DFF8E031984201D1032331E0E2
:1003B0002068DFF8D831984201D104232AE0206870
:1003C000DFF8CC31984201D1052323E02068DFF823
:1003D000C431984201D106231CE02068DFF8B8310F
:1003E000984201D1072315E02068DFF8B031984228
:1003F00001D108230EE02068DFF8A431984201D132
:10040000092307E02068DFF89C31984201D10A23D4
:1004100000E00023DFF89C610800C0B256F82070AD
:100420009C465FFA8CFCD2B290001CFA00FC5CEA9D
:1004300007070800C0B246F82070DFF87C61376813
:100440005FF0010C94F904001CFA00FC5CEA070759
:100450003760A1792079C0B240008140032620682E
:10046000806894F9042016FA02F2904322689060A2
:10047000206880680843226890600022E379207930
:10048000C0B2400083402068C76894F904008640E9
:1004900037EA06062068C6602068C06818432668E8
:1004A000F0600026277A94F9040087402068D0F88D
:1004B00004C05FF0010E94F904001EFA00FE3CEA4D
:1004C0000E0C2068C0F804C0206840683843D4F897
:1004D00000C0CCF804005FF0000C6079022826D13F
:1004E000002100232079082290FBF2F225790820D0
:1004F00095FBF0F600FB1655206800EB8200066ABB
:100500000F272800C0B280008740BE43206800EB60
:1005100082000662206800EB8200066A677AEDB20C
:10052000A80087403E43206800EB82000662F1BDD0
:1005300010B41300DBB2012B05D1436901248C40B8
:100540002343436104E0436901248C40A343436196
:1005500010BC7047426901238B405A40426170478A
:1005600016490A68C240D20704D50A6801238340AD
:100570001A430A6070470000000002403038024011
:100580000004024000080240000C0240001002403B
:100590000014024000180240001C024000200240EB
:1005A00000240240002802400C3C0140083C01406D
:1005B0004438024008380140003C0140143C0140EE
:1005C0000021814201D2491CFBE77047E0B54E484B
:1005D000009002208DF8050005208DF8090000200C
:1005E0008DF8080000208DF8070002208DF8060025
:1005F0000D208DF804006846FFF74BFE0F208DF8A4
:1006000004006846FFF745FE01208DF805000C2028
:100610008DF8040000208DF8080000208DF80700F8
:1006200002208DF806006846FFF733FE07BDE0B5EF
:100630003648009001208DF8040000208DF8050058
:1006400001208DF80A0000208DF8070000208DF8A9
:10065000080000208DF8060001208DF8090068468A
:1006600000F086F807BD7FB5FFF7B0FFFFF7DFFFAB
:10067000264C0121200000F0DDF8234D01220C2141
:100680002800FFF755FF0A20FFF79AFF6846204928
:1006900091E84C0080E84C000121200000F0BCF8FB
:1006A0000A20FFF78DFF00220C212800FFF740FFF2
:1006B000684600F0CDF80200D2B26946200000F092
:1006C0008EF88021200000F082F80028F9D1002166
:1006D000200000F0A1F801220C212800FFF728FFDC
:1006E000FEE710B50120FFF73BFF00242000C0B259
:1006F000052808DA0D210748FFF72CFF0648FFF709
:100700005FFF641CF2E710BD0004024000380040A7
:10071000C40900080008024040420F000A00D2B29B
:10072000012A19D10D4A904205D10D4A136853F49C
:100730008053136010E00B4A904205D10A4A1368B7
:1007400053F48043136007E0084A904204D1064AFC
:10075000136853F480431360704700000030014079
:10076000443802400038004040380240003C00401D
:1007700010B5040001212068FFF7D0FF0021207987
:1007800051EA80016079002802D131F400410DE086
:100790006079012802D151F4004107E06079022814
:1007A00004D131F4004151F48061FFE7A07A51EAAD
:1007B000C001A07951EAC021207A51EA4001E079D4
:1007C0000143607A51EA40212068016010BD0200B7
:1007D0009068084201D0012000E00020704770B509
:1007E00004000D0016003000C0B2002813D0022112
:1007F0002000FFF7ECFF0028F9D02068000505D5A0
:100800002888E060701E461E6D1CECE72878E060CA
:10081000761E6D1CE7E770BD0A00D2B2012A04D132
:10082000026852F04002026003E0026832F04002C7
:10083000026070470A00D2B2012A04D1026852F461
:100840008072026003E0026832F4807202607047D6
:1008500000F10103810704D010F8011B820781B168
:10086000FAD10268A2F10131914311F0803104BF45
:1008700050F8042FF6E709BAB1FA81F100EBD10084
:10088000401CC01A70470EE00268436802440830FA
:100890005FEAC37C44BF4B445B1E52F804CB43F871
:1008A00004CB091FF9D150F8041B0029ECD1704783
:1008B00010B5074979441831064C7C44163404E0DD
:1008C0000A68081D114488470146A142F8D110BDAD
:1008D0002C0000003C0000004EF68851CEF20001D2
:1008E000086840F470000860BFF34F8FBFF36F8F4C
:1008F0004FF00170E1EE100A704700008BFFFFFF20
:1009000008000000CC0000000000002000000000F3
:1009100000F00DF8002801D0FFF7CAFFAFF3008008
:100920000020AFF30080FFF79EFE00F002F80120E8
:10093000704700F001B800000746384600F002F8A2
:10094000FBE7000080B5AFF30080024A11001820D9
:10095000ABBEFBE7260002000548014603B468462B
:1009600080F30988AFF30080FFF7B6FFFFF7D0FFF1
:10097000A5EDF5FE03480168034A12788918016065
:10098000704700BF0000002004000020FEE7FEE7E3
:10099000FEE7FEE7FEE770477047704780B5FFF758
:1009A000E9FF01BD0148804701480047B50900083B
:1009B000590900080248016851F47001016070474C
:1009C00088ED00E048656C6C6F20535049000000D2
:1009D0000000000001000000FFF7FEBFFFF7FEBFB0
:1009E000FFF7FEBFFFF7FEBFFFF7FEBFFFF7FEBF3B
:1009F000FFF7FEBFFFF7FEBFFFF7FEBFFFF7FEBF2B
:100A0000FFF7FEBFFFF7FEBFFFF7FEBFFFF7FEBF1A
:100A1000FFF7FEBFFFF7FEBFFFF7FEBFFFF7FEBF0A
:100A2000FFF7FEBFFFF7FEBFFFF7FEBFFFF7FEBFFA
:100A3000FFF7FEBFFFF7FEBFFFF7FEBFFFF7FEBFEA
:100A4000FFF7FEBFFFF7FEBFFFF7FEBFFFF7FEBFDA
:100A5000FFF7FEBFFFF7FEBFFFF7FEBFFFF7FEBFCA
:100A6000FFF7FEBFFFF7FEBFFFF7FEBFFFF7FEBFBA
:100A7000FFF7FEBFFFF7FEBFFFF7FEBFFFF7FEBFAA
:100A8000FFF7FEBFFFF7FEBFFFF7FEBFFFF7FEBF9A
:100A9000FFF7FEBFFFF7FEBFFFF7FEBFFFF7FEBF8A
:100AA000FFF7FEBFFFF7FEBFFFF7FEBFFFF7FEBF7A
:080AB000FFF7FEBFFFF7FEBFD8
:04000005080009598D
:00000001FF
