:020000040800F2
:1000000008040020B50900089D0900089F090008A0
:10001000A1090008A3090008A509000800000000C4
:10002000000000000000000000000000A709000818
:10003000A909000800000000AB090008AD0900088C
:10004000DD090008E1090008E5090008E9090008E0
:10005000ED090008F1090008F5090008F909000890
:10006000FD090008010A0008050A0008090A00083D
:100070000D0A0008110A0008150A0008190A0008EC
:100080001D0A0008210A0008250A000800000000D7
:10009000000000000000000000000000290A000825
:1000A0002D0A0008310A0008350A0008390A00083C
:1000B0003D0A0008410A0008450A0008490A0008EC
:1000C0004D0A0008510A0008550A0008590A00089C
:1000D0005D0A0008610A0008650A000800000000C7
:1000E000690A00086D0A0008710A00080000000093
:1000F000000000000000000000000000750A000879
:1001000000000000790A00087D0A0008810A000842
:1001100000000000000000000000000000000000DF
:10012000850A0008890A00088D0A0008910A00085B
:10013000950A000800000000000000000000000018
:10014000000000000000000000000000990A000804
:100150009D0A0008A10A0008A50A0008A90A0008CB
:10016000AD0A0008B10A000800000000000000000D
:10017000000000000000000000000000000000007F
:1001800000000000B50A00080000000000000000A8
:10019000B90A0008BD0A00080A00D2B2012A77D1C4
:1001A000DFF89C23904206D1DFF89823136853F0C0
:1001B000010313606CE0DFF89023904206D1DFF872
:1001C0008423136853F00203136061E0DFF87C239B
:1001D000904206D1DFF86C23136853F004031360D8
:1001E00056E0DFF86C23904206D1DFF858231368FD
:1001F00053F0080313604BE0DFF85823904206D118
:10020000DFF84023136853F01003136040E0DFF879
:100210004823904206D1DFF82C23136853F02003C3
:10022000136035E0DFF83423904206D1DFF8142361
:10023000136853F0400313602AE0DFF82423904250
:1002400006D1DFF80023136853F0800313601FE02A
:10025000DFF81023904206D1DFF8E822136853F448
:100260008073136014E0DFF80023904206D1DFF8BA
:10027000D422136853F40073136009E0DFF8EC2212
:10028000904205D1DFF8BC22136853F480631360F9
:100290007047F8B50400002501212068FFF77CFFB6
:1002A0006079042815DA61792079C0B24000814074
:1002B00020680268032394F9040083409A4320686D
:1002C0000260206800680843226810600020050072
:1002D000BFE06079042813D10121DFF8940202689D
:1002E00094F9043011FA03F31A430260DFF8842210
:1002F000136894F90400814033EA010111602BE096
:100300006079052813D1DFF86C020121026894F9A5
:10031000043011FA03F31A430260DFF85422136821
:1003200094F90400814033EA0101116014E060791E
:10033000052811D10121DFF83802026894F9043050
:1003400011FA03F31A430260DFF82822136894F9C4
:1003500004008140194311602079042190FBF1F1E0
:100360002279042092FBF0F300FB1322DFF808024D
:10037000036853F4804303602068DFF8C431984277
:1003800001D1002346E02068DFF8BC31984201D15A
:1003900001233FE02068DFF8B431984201D1022305
:1003A00038E02068DFF8A831984201D1032331E01A
:1003B0002068DFF8A031984201D104232AE02068A8
:1003C000DFF89431984201D1052323E02068DFF85B
:1003D0008C31984201D106231CE02068DFF880317F
:1003E000984201D1072315E02068DFF87831984260
:1003F00001D108230EE02068DFF86C31984201D16A
:10040000092307E02068DFF86431984201D10A230C
:1004100000E00023DFF864610800C0B256F82070E5
:100420009C465FFA8CFCD2B290001CFA00FC5CEA9D
:1004300007070800C0B246F82070DFF8446137684B
:100440005FF0010C94F904001CFA00FC5CEA070759
:100450003760A1792079C0B240008140032620682E
:10046000806894F9042016FA02F2904322689060A2
:10047000206880680843226890600022E379207930
:10048000C0B2400083402068C76894F904008640E9
:1004900037EA06062068C6602068C06818432668E8
:1004A000F0600026277A94F9040087402068D0F88D
:1004B00004C05FF0010E94F904001EFA00FE3CEA4D
:1004C0000E0C2068C0F804C0206840683843D4F897
:1004D00000C0CCF804005FF0000C6079022826D13F
:1004E000002100232079082290FBF2F225790820D0
:1004F00095FBF0F600FB1655206800EB8200066ABB
:100500000F272800C0B280008740BE43206800EB60
:1005100082000662206800EB8200066A677AEDB20C
:10052000A80087403E43206800EB82000662F1BDD0
:1005300002001069C84010F00100C0B2704700000E
:10054000000002403038024000040240000802402F
:10055000000C02400010024000140240001802404B
:10056000001C0240002002400024024000280240FB
:100570000C3C0140083C014044380240083801402E
:10058000003C01400021814201D2491CFBE7704739
:10059000E0B56148009002208DF8050005208DF837
:1005A000090000208DF8080000208DF807000220C7
:1005B0008DF806000D208DF804006846FFF769FEEF
:1005C0000F208DF804006846FFF763FE0E208DF8BB
:1005D00004006846FFF75DFE0C208DF804006846B5
:1005E000FFF757FE07BDE0B54C48009001208DF89D
:1005F000040000208DF8050002208DF80A0000207C
:100600008DF8070000208DF8080000208DF8060006
:1006100000208DF80900684600F0B0F807BDE0B58D
:100620003F48009002208DF8040000208DF805005E
:1006300002208DF8070002208DF806006846FFF7BB
:1006400028FE07BD01000800C0B2F52801D1012035
:1006500000E0002070477CB5F0208DF80200FFF725
:10066000DEFFFFF795FFFFF7BEFF01212B4800F0EB
:1006700004F92B4C02212000FFF75AFF05005020FF
:100680008DF8000002212000FFF752FF0028F9D06A
:100690002448FFF777FF50208DF800001F4E0121FE
:1006A000300000F0DCF801226946300000F09DF8CF
:1006B00001220DF10301300000F0B4F801220DF128
:1006C0000201300000F091F801220DF1010130002B
:1006D00000F0A8F89DF80100FFF7B4FF00280FD044
:1006E0000D208DF8040001208DF80500022201A9DB
:1006F000300000F07AF8022201A9300000F092F8F0
:100700008021300000F069F80028F9D10021300084
:1007100000F0A5F8B6E700000004024000380040F1
:100720000000024020A107000A00D2B2012A19D11C
:100730000D4A904205D10D4A136853F4805313605B
:1007400010E00B4A904205D10A4A136853F48043E3
:10075000136007E0084A904204D1064A136853F434
:10076000804313607047000000300140443802406D
:100770000038004040380240003C004010B5040002
:1007800001212068FFF7D0FF0021207951EA800184
:100790006079002802D131F400410DE06079012830
:1007A00002D151F4004107E06079022804D131F40C
:1007B000004151F48061FFE7A07A51EAC001A079BD
:1007C00051EAC021207A51EA4001E0790143607A80
:1007D00051EA40212068016010BD02009068084283
:1007E00001D0012000E00020704770B504000D002A
:1007F00016003000C0B2002813D002212000FFF7FD
:10080000ECFF0028F9D02068000505D52888E060B5
:10081000701E461E6D1CECE72878E060761E6D1C8D
:10082000E7E770BD70B504000D0016003000C0B2DF
:10083000002813D001212000FFF7CFFF0028F9D0B6
:100840002068000505D5E0682880701E461E6D1CD6
:10085000ECE7E0682870761E6D1CE7E770BD0A00C3
:10086000D2B2012A04D1026852F04002026003E0D1
:10087000026832F04002026070470A00D2B2012AD8
:1008800004D1426852F00402426003E0426832F050
:100890000402426070470EE0026843680244083078
:1008A0005FEAC37C44BF4B445B1E52F804CB43F861
:1008B00004CB091FF9D150F8041B0029ECD1704773
:1008C00010B5074979441831064C7C44163404E0CD
:1008D0000A68081D114488470146A142F8D110BD9D
:1008E0002C0000003C0000004EF68851CEF20001C2
:1008F000086840F470000860BFF34F8FBFF36F8F3C
:100900004FF00170E1EE100A704700008BFFFFFF0F
:1009100008000000C00000000000002000000000EF
:1009200000F00DF8002801D0FFF7CAFFAFF30080F8
:100930000020AFF30080FFF78EFE00F002F80120E8
:10094000704700F001B800000746384600F002F892
:10095000FBE7000080B5AFF30080024A11001820C9
:10096000ABBEFBE7260002000548014603B468461B
:1009700080F30988AFF30080FFF7B6FFFFF7D0FFE1
:10098000A5EDF5FE03480168034A12788918016055
:10099000704700BF0000002004000020FEE7FEE7D3
:1009A000FEE7FEE7FEE770477047704780B5FFF748
:1009B000E9FF01BD0148804701480047C50900081B
:1009C000690900080248016851F47001016070472C
:1009D00088ED00E00000000001000000FFF7FEBF0E
:1009E000FFF7FEBFFFF7FEBFFFF7FEBFFFF7FEBF3B
:1009F000FFF7FEBFFFF7FEBFFFF7FEBFFFF7FEBF2B
:100A0000FFF7FEBFFFF7FEBFFFF7FEBFFFF7FEBF1A
:100A1000FFF7FEBFFFF7FEBFFFF7FEBFFFF7FEBF0A
:100A2000FFF7FEBFFFF7FEBFFFF7FEBFFFF7FEBFFA
:100A3000FFF7FEBFFFF7FEBFFFF7FEBFFFF7FEBFEA
:100A4000FFF7FEBFFFF7FEBFFFF7FEBFFFF7FEBFDA
:100A5000FFF7FEBFFFF7FEBFFFF7FEBFFFF7FEBFCA
:100A6000FFF7FEBFFFF7FEBFFFF7FEBFFFF7FEBFBA
:100A7000FFF7FEBFFFF7FEBFFFF7FEBFFFF7FEBFAA
:100A8000FFF7FEBFFFF7FEBFFFF7FEBFFFF7FEBF9A
:100A9000FFF7FEBFFFF7FEBFFFF7FEBFFFF7FEBF8A
:100AA000FFF7FEBFFFF7FEBFFFF7FEBFFFF7FEBF7A
:100AB000FFF7FEBFFFF7FEBFFFF7FEBFFFF7FEBF6A
:04000005080009697D
:00000001FF
