:020000040800F2
:1000000008040020E10A0008C90A0008CB0A000819
:10001000CD0A0008CF0A0008D10A0008000000003D
:10002000000000000000000000000000D30A0008EB
:10003000D50A000800000000D70A0008D90A000805
:10004000090B00080D0B0008110B0008150B000828
:10005000190B00081D0B0008210B00084D070008B4
:10006000250B0008290B00082D0B0008310B000898
:10007000350B0008390B00083D0B0008410B000848
:10008000450B0008490B00084D0B0008000000005C
:10009000000000000000000000000000510B0008FC
:1000A000550B0008590B00085D0B0008610B000898
:1000B000650B0008690B00086D0B0008710B000848
:1000C000750B0008790B00087D0B0008810B0008F8
:1000D000850B0008890B00088D0B0008000000004C
:1000E000910B0008950B0008990B00080000000018
:1000F0000000000000000000000000009D0B000850
:1001000000000000A10B0008A50B0008A90B0008C7
:1001100000000000000000000000000000000000DF
:10012000AD0B0008B10B0008B50B0008B90B0008B7
:10013000BD0B0008000000000000000000000000EF
:10014000000000000000000000000000C10B0008DB
:10015000C50B0008C90B0008CD0B0008D10B000827
:10016000D50B0008D90B00080000000000000000BB
:10017000000000000000000000000000000000007F
:1001800000000000DD0B000800000000000000007F
:10019000E10B0008E50B00080A00D2B2012A77D172
:1001A000DFF8E023904206D1DFF8DC23136853F038
:1001B000010313606CE0DFF8D423904206D1DFF82E
:1001C000C823136853F00203136061E0DFF8C02313
:1001D000904206D1DFF8B023136853F00403136094
:1001E00056E0DFF8B023904206D1DFF89C23136875
:1001F00053F0080313604BE0DFF89C23904206D1D4
:10020000DFF88423136853F01003136040E0DFF835
:100210008C23904206D1DFF87023136853F020033B
:10022000136035E0DFF87823904206D1DFF85823D9
:10023000136853F0400313602AE0DFF8682390420C
:1002400006D1DFF84423136853F0800313601FE0E6
:10025000DFF85423904206D1DFF82C331A6852F4A9
:1002600080721A6014E0DFF84423904206D1DFF870
:1002700018331A6852F400721A6009E0DFF830236C
:10028000904205D1DFF800331A6852F480621A6098
:100290007047F8B50500002401212868FFF77CFFAE
:1002A0006879042815DA69792879C0B2400081405C
:1002B00028680268032395F9040083409A4328685C
:1002C00002602868006808432A6810600020040063
:1002D000BFE06879042813D10121DFF8D83218680B
:1002E00095F9042011FA02F210431860DFF8C832C1
:1002F0001A6895F90400814032EA010119602BE087
:100300006879052813D1DFF8B0320121186895F912
:10031000042011FA02F210431860DFF898321A68CC
:1003200095F90400814032EA0101196014E068790E
:10033000052811D10121DFF87C32186895F90420D5
:1003400011FA02F210431860DFF86C321A6895F95E
:1003500004008140114319602879042190FBF1F1D8
:100360002A79042392FBF3F003FB1022DFF84C32CE
:10037000186850F4804018602B68DFF80802834248
:1003800001D1002346E02B68DFF80002834201D14F
:1003900001233FE02B68DFF8F801834201D10223FB
:1003A00038E02B68DFF8EC01834201D1032331E010
:1003B0002B68DFF8E401834201D104232AE02B6893
:1003C000DFF8D801834201D1052323E02B68DFF851
:1003D000D001834201D106231CE02868DFF8C43134
:1003E000984201D1072315E02B68DFF8BC01834256
:1003F00001D108230EE02B68DFF8B001834201D160
:10040000092307E02B68DFF8A801834201D10A2302
:1004100000E00023DFF8A8610800C0B256F82070A1
:100420009C465FFA8CFCD2B290001CFA00FC5CEA9D
:1004300007070800C0B246F82070DFF88861D6F8D8
:1004400000C0012795F90400874057EA0C0CC6F854
:1004500000C0A9792879C0B24000814003262868ED
:10046000806895F9042016FA02F290432A68906099
:10047000286882680A43286882600022EB7928791C
:10048000C0B2400083402868C76895F904008640E0
:1004900037EA06062868C6602868C6681E432868CA
:1004A000C66000262F7A95F9040087402868D0F8A6
:1004B00004C05FF0010E95F904001EFA00FE3CEA4C
:1004C0000E0C2868C0F804C0286840683843D5F886
:1004D00000C0CCF804005FF0000C6879022826D137
:1004E000002100222B79082093FBF0F32C790820BF
:1004F00094FBF0F600FB1644286800EB8300066AC4
:100500000F272000C0B280008740BE43286800EB60
:1005100083000662286800EB8300066A6F7AE4B203
:10052000A00087403E43286800EB83000662F1BDCF
:1005300002001069C84010F00100C0B2704710B44A
:100540001300DBB2012B05D1446901238B401C430E
:10055000446104E0446901238B409C43446110BC26
:100560007047436901228A405340436170471649EE
:100570000A68C240D20704D50B68012282401343A7
:100580000B60704700000240303802400004024017
:1005900000080240000C024000100240001402401B
:1005A00000180240001C02400020024000240240CB
:1005B000002802400C3C0140083C01404438024005
:1005C00008380140003C0140143C014000218142B8
:1005D00001D2491CFBE77047E0B566480090022055
:1005E0008DF8050005208DF8090000208DF8080021
:1005F00000208DF8070002208DF806000D208DF8F0
:1006000004006846FFF745FE0F208DF80400684699
:10061000FFF73FFE0E208DF804006846FFF739FE15
:100620000C208DF8040000208DF8090000208DF8C2
:10063000080001208DF8070002208DF80600012037
:100640008DF805006846FFF724FE07BDE0B54A486F
:10065000009001208DF8040000208DF80500032093
:100660008DF80A0000208DF8070000208DF80800A2
:1006700000208DF8060001208DF80900684600F082
:10068000AFF807BDE0B53D48009000208DF80500AB
:1006900001208DF8070002208DF806006846FFF75C
:1006A000F8FD07BD78B591B0FFF796FFFFF7CEFFD5
:1006B000314C0121200000F0F5F8FFF7E3FF2D4D4C
:1006C00001220C212800FFF73AFF01A82C49402203
:1006D00000F0F6F801A800F04BF98DF800000021B9
:1006E0002648FFF725FF0028F9D100263000C0B2C8
:1006F000002827D10121200000F0C6F800220C219B
:100700002800FFF71CFF01226946200000F09FF837
:1007100001A800F02DF90200D2B201A9200000F0DA
:1007200096F88021200000F08AF80028F9D10021F5
:10073000200000F0A9F801220C212800FFF7FFFE9D
:10074000761CD3E70F48FFF741FFC8E710B501203B
:10075000FFF70DFF00242000C0B2052808DA0D21A4
:100760000948FFF7FEFE0748FFF730FF641CF2E779
:1007700010BD0000000402400038004000000240AC
:10078000A809000840420F00000802400A00D2B247
:10079000012A19D10D4A904205D10D4B1A6852F425
:1007A00080521A6010E00B4A904205D10A4B1A6839
:1007B00052F480421A6007E0084A904204D1064B86
:1007C0001A6852F480421A607047000000300140FD
:1007D000443802400038004040380240003C0040AD
:1007E00010B5040001212068FFF7D0FF0021207917
:1007F00051EA80016079002802D131F400410DE016
:100800006079012802D151F4004107E060790228A3
:1008100004D131F4004151F48061FFE7A07A51EA3C
:10082000C001A07951EAC021207A51EA4001E07963
:100830000143607A51EA40212068016010BD020046
:100840009068084201D0012000E00020704770B598
:1008500004000E0015002800C0B2002813D00221A9
:100860002000FFF7ECFF0028F9D02068000505D52F
:100870003088E060681E451E761CECE73078E0604A
:100880006D1E761CE7E770BD0A00D2B2012A04D1C2
:10089000026852F04002026003E0026832F0400257
:1008A000026070470A00D2B2012A04D1026852F4F1
:1008B0008072026003E0026832F480720260704766
:1008C000103A07D330B4B1E83810103AA0E8381025
:1008D000F9D230BC530724BFB1E80810A0E80810D3
:1008E00044BF51F8043B40F8043BD20724BF31F821
:1008F000022B20F8022B44BF0B7803707047121FA5
:1009000017D35B0009D151F8043B20F8023B1B0CC4
:10091000121F20F8023BF6D20BE051F8043B00F81E
:10092000013B1B0A20F8023B1B0C121F00F8013B85
:10093000F3D238BF121D521E24BF11F8013B00F83C
:10094000013BF8D870470EE0026843680244083063
:100950005FEAC37C44BF4B445B1E52F804CB43F8B0
:1009600004CB091FF9D150F8041B0029ECD17047C2
:1009700000F10103810704D010F8011B820781B147
:10098000FAD10268A2F10131914311F0803104BF24
:1009900050F8042FF6E709BAB1FA81F100EBD10063
:1009A000401CC01A7047000048656C6C6F20417293
:1009B0006475696E6F20746869732069732073743D
:1009C0006D3332663431317878204920616D20737F
:1009D000656E6469672064617461207573696E6710
:1009E000205350490000000010B5034A7A440832F1
:1009F000024C7C44A41D03E04000000050000000B5
:100A000004E01168101D114488470246A242F8D143
:100A100010BD00004EF68851CEF20001086840F487
:100A200070000860BFF34F8FBFF36F8F4FF00170FE
:100A3000E1EE100A704700000FFFFFFF0800000002
:100A4000C0000000000000200000000000F00DF8D1
:100A5000002801D0FFF7C8FFAFF300800020AFF3FC
:100A60000080FFF71FFE00F002F80120704700F041
:100A700001B800000746384600F002F8FBE7000026
:100A800080B5AFF30080024A11001820ABBEFBE72F
:100A9000260002000548014603B4684680F3098831
:100AA000AFF30080FFF7B6FFFFF7D0FFA5EDF5FE2F
:100AB00003480168034A127889180160704700BF33
:100AC0000000002004000020FEE7FEE7FEE7FEE74E
:100AD000FEE770477047704780B5FFF7E9FF01BD3B
:100AE0000148804701480047F10A0008950A0008BC
:100AF0000249086850F470000860704788ED00E013
:100B00000000000001000000FFF7FEBFFFF7FEBF7E
:100B1000FFF7FEBFFFF7FEBFFFF7FEBFFFF7FEBF09
:100B2000FFF7FEBFFFF7FEBFFFF7FEBFFFF7FEBFF9
:100B3000FFF7FEBFFFF7FEBFFFF7FEBFFFF7FEBFE9
:100B4000FFF7FEBFFFF7FEBFFFF7FEBFFFF7FEBFD9
:100B5000FFF7FEBFFFF7FEBFFFF7FEBFFFF7FEBFC9
:100B6000FFF7FEBFFFF7FEBFFFF7FEBFFFF7FEBFB9
:100B7000FFF7FEBFFFF7FEBFFFF7FEBFFFF7FEBFA9
:100B8000FFF7FEBFFFF7FEBFFFF7FEBFFFF7FEBF99
:100B9000FFF7FEBFFFF7FEBFFFF7FEBFFFF7FEBF89
:100BA000FFF7FEBFFFF7FEBFFFF7FEBFFFF7FEBF79
:100BB000FFF7FEBFFFF7FEBFFFF7FEBFFFF7FEBF69
:100BC000FFF7FEBFFFF7FEBFFFF7FEBFFFF7FEBF59
:100BD000FFF7FEBFFFF7FEBFFFF7FEBFFFF7FEBF49
:080BE000FFF7FEBFFFF7FEBFA7
:0400000508000A9550
:00000001FF
